{
  "abi": [
    {
      "type": "constructor",
      "inputs": [],
      "stateMutability": "nonpayable"
    },
    {
      "type": "function",
      "name": "UPGRADE_INTERFACE_VERSION",
      "inputs": [],
      "outputs": [
        {
          "name": "",
          "type": "string",
          "internalType": "string"
        }
      ],
      "stateMutability": "view"
    },
    {
      "type": "function",
      "name": "addAppContract",
      "inputs": [
        {
          "name": "appId",
          "type": "bytes32",
          "internalType": "bytes32"
        },
        {
          "name": "dapp",
          "type": "address",
          "internalType": "address"
        }
      ],
      "outputs": [],
      "stateMutability": "nonpayable"
    },
    {
      "type": "function",
      "name": "appOwnerOf",
      "inputs": [
        {
          "name": "appId",
          "type": "bytes32",
          "internalType": "bytes32"
        }
      ],
      "outputs": [
        {
          "name": "",
          "type": "address",
          "internalType": "address"
        }
      ],
      "stateMutability": "view"
    },
    {
      "type": "function",
      "name": "contractToAppId",
      "inputs": [
        {
          "name": "",
          "type": "address",
          "internalType": "address"
        }
      ],
      "outputs": [
        {
          "name": "",
          "type": "bytes32",
          "internalType": "bytes32"
        }
      ],
      "stateMutability": "view"
    },
    {
      "type": "function",
      "name": "getAppsByOwner",
      "inputs": [
        {
          "name": "owner",
          "type": "address",
          "internalType": "address"
        }
      ],
      "outputs": [
        {
          "name": "",
          "type": "bytes32[]",
          "internalType": "bytes32[]"
        }
      ],
      "stateMutability": "view"
    },
    {
      "type": "function",
      "name": "getContracts",
      "inputs": [
        {
          "name": "appId",
          "type": "bytes32",
          "internalType": "bytes32"
        }
      ],
      "outputs": [
        {
          "name": "",
          "type": "address[]",
          "internalType": "address[]"
        }
      ],
      "stateMutability": "view"
    },
    {
      "type": "function",
      "name": "initialize",
      "inputs": [
        {
          "name": "initialOwner",
          "type": "address",
          "internalType": "address"
        }
      ],
      "outputs": [],
      "stateMutability": "nonpayable"
    },
    {
      "type": "function",
      "name": "isContractAllowed",
      "inputs": [
        {
          "name": "appId",
          "type": "bytes32",
          "internalType": "bytes32"
        },
        {
          "name": "dapp",
          "type": "address",
          "internalType": "address"
        }
      ],
      "outputs": [
        {
          "name": "",
          "type": "bool",
          "internalType": "bool"
        }
      ],
      "stateMutability": "view"
    },
    {
      "type": "function",
      "name": "owner",
      "inputs": [],
      "outputs": [
        {
          "name": "",
          "type": "address",
          "internalType": "address"
        }
      ],
      "stateMutability": "view"
    },
    {
      "type": "function",
      "name": "proxiableUUID",
      "inputs": [],
      "outputs": [
        {
          "name": "",
          "type": "bytes32",
          "internalType": "bytes32"
        }
      ],
      "stateMutability": "view"
    },
    {
      "type": "function",
      "name": "registerApp",
      "inputs": [],
      "outputs": [
        {
          "name": "appId",
          "type": "bytes32",
          "internalType": "bytes32"
        }
      ],
      "stateMutability": "nonpayable"
    },
    {
      "type": "function",
      "name": "removeAppContract",
      "inputs": [
        {
          "name": "appId",
          "type": "bytes32",
          "internalType": "bytes32"
        },
        {
          "name": "dapp",
          "type": "address",
          "internalType": "address"
        }
      ],
      "outputs": [],
      "stateMutability": "nonpayable"
    },
    {
      "type": "function",
      "name": "renounceOwnership",
      "inputs": [],
      "outputs": [],
      "stateMutability": "nonpayable"
    },
    {
      "type": "function",
      "name": "transferAppOwnership",
      "inputs": [
        {
          "name": "appId",
          "type": "bytes32",
          "internalType": "bytes32"
        },
        {
          "name": "newOwner",
          "type": "address",
          "internalType": "address"
        }
      ],
      "outputs": [],
      "stateMutability": "nonpayable"
    },
    {
      "type": "function",
      "name": "transferOwnership",
      "inputs": [
        {
          "name": "newOwner",
          "type": "address",
          "internalType": "address"
        }
      ],
      "outputs": [],
      "stateMutability": "nonpayable"
    },
    {
      "type": "function",
      "name": "upgradeToAndCall",
      "inputs": [
        {
          "name": "newImplementation",
          "type": "address",
          "internalType": "address"
        },
        {
          "name": "data",
          "type": "bytes",
          "internalType": "bytes"
        }
      ],
      "outputs": [],
      "stateMutability": "payable"
    },
    {
      "type": "event",
      "name": "AppContractAdded",
      "inputs": [
        {
          "name": "appId",
          "type": "bytes32",
          "indexed": true,
          "internalType": "bytes32"
        },
        {
          "name": "dapp",
          "type": "address",
          "indexed": true,
          "internalType": "address"
        }
      ],
      "anonymous": false
    },
    {
      "type": "event",
      "name": "AppContractRemoved",
      "inputs": [
        {
          "name": "appId",
          "type": "bytes32",
          "indexed": true,
          "internalType": "bytes32"
        },
        {
          "name": "dapp",
          "type": "address",
          "indexed": true,
          "internalType": "address"
        }
      ],
      "anonymous": false
    },
    {
      "type": "event",
      "name": "AppOwnerTransferred",
      "inputs": [
        {
          "name": "appId",
          "type": "bytes32",
          "indexed": true,
          "internalType": "bytes32"
        },
        {
          "name": "prevOwner",
          "type": "address",
          "indexed": true,
          "internalType": "address"
        },
        {
          "name": "newOwner",
          "type": "address",
          "indexed": true,
          "internalType": "address"
        }
      ],
      "anonymous": false
    },
    {
      "type": "event",
      "name": "AppRegistered",
      "inputs": [
        {
          "name": "appId",
          "type": "bytes32",
          "indexed": true,
          "internalType": "bytes32"
        },
        {
          "name": "appOwner",
          "type": "address",
          "indexed": true,
          "internalType": "address"
        }
      ],
      "anonymous": false
    },
    {
      "type": "event",
      "name": "Initialized",
      "inputs": [
        {
          "name": "version",
          "type": "uint64",
          "indexed": false,
          "internalType": "uint64"
        }
      ],
      "anonymous": false
    },
    {
      "type": "event",
      "name": "OwnershipTransferred",
      "inputs": [
        {
          "name": "previousOwner",
          "type": "address",
          "indexed": true,
          "internalType": "address"
        },
        {
          "name": "newOwner",
          "type": "address",
          "indexed": true,
          "internalType": "address"
        }
      ],
      "anonymous": false
    },
    {
      "type": "event",
      "name": "Upgraded",
      "inputs": [
        {
          "name": "implementation",
          "type": "address",
          "indexed": true,
          "internalType": "address"
        }
      ],
      "anonymous": false
    },
    {
      "type": "error",
      "name": "AddressEmptyCode",
      "inputs": [
        {
          "name": "target",
          "type": "address",
          "internalType": "address"
        }
      ]
    },
    {
      "type": "error",
      "name": "ERC1967InvalidImplementation",
      "inputs": [
        {
          "name": "implementation",
          "type": "address",
          "internalType": "address"
        }
      ]
    },
    {
      "type": "error",
      "name": "ERC1967NonPayable",
      "inputs": []
    },
    {
      "type": "error",
      "name": "FailedCall",
      "inputs": []
    },
    {
      "type": "error",
      "name": "InvalidInitialization",
      "inputs": []
    },
    {
      "type": "error",
      "name": "NotInitializing",
      "inputs": []
    },
    {
      "type": "error",
      "name": "OwnableInvalidOwner",
      "inputs": [
        {
          "name": "owner",
          "type": "address",
          "internalType": "address"
        }
      ]
    },
    {
      "type": "error",
      "name": "OwnableUnauthorizedAccount",
      "inputs": [
        {
          "name": "account",
          "type": "address",
          "internalType": "address"
        }
      ]
    },
    {
      "type": "error",
      "name": "UUPSUnauthorizedCallContext",
      "inputs": []
    },
    {
      "type": "error",
      "name": "UUPSUnsupportedProxiableUUID",
      "inputs": [
        {
          "name": "slot",
          "type": "bytes32",
          "internalType": "bytes32"
        }
      ]
    }
  ],
  "bytecode": {
    "object": "0x60a080604052346100cc57306080527ff0c57e16840df040f15088dc2f81fe391c3923bec73e23a9662efc9c229c6a009081549060ff8260401c166100bd57506001600160401b036002600160401b031982821601610078575b60405161118f90816100d182396080518181816109420152610a1f0152f35b6001600160401b031990911681179091556040519081527fc7f505b2f371ae2175ee4913f4499e1f2633a7b5936321eed1cdaeb6115181d290602090a15f8080610059565b63f92ee8a960e01b8152600490fd5b5f80fdfe604060808152600480361015610013575f80fd5b5f3560e01c9182630ca5d93514610cfa578263393fa09414610ccd57826343bbc39b14610bfb5782634f1ef286146109a657826352d1902d146109305782636d6c85c314610801578263715018a61461079a57826381738c59146106ea578263849a7ebf1461057257826385567a4d1461053c5782638da5cb5b14610509578263a8b9568c146104c4578263ad3cb1cc14610427578263c4d66de8146102f4578263e09c0082146100fd57505063f2fde38b146100ce575f80fd5b346100f95760203660031901126100f9576100f76100ea610e7d565b6100f261105d565b610fec565b005b5f80fd5b346100f957806003193601126100f957813590610118610e67565b92825f525f602052815f2060018060a01b0380825416610139811515610ee5565b331480156102db575b61014b90610f1a565b6001928160018401971696875f528060205260ff865f205416156102ac575f888152602091909152858120805460ff19169055939260020190835b6101d3575b5050505050825f5260016020525f20818154146101ca575b507f0b70f50d7731be127c4777f1bf87ddc001281b9ce23db2b4b9f98fffe7fe90065f80a3005b5f9055826101a3565b8154808610156102a6578390896101ea8886610f9d565b939054600394851b1c16146102055750508380950194610186565b929450945f19928381019081116102935790610236856102286102549489610f9d565b9054908a1b1c169187610f9d565b90919060018060a01b038084549260031b9316831b921b1916179055565b83549081156102805750019261026a8484610f9d565b81939154921b1b1916905555838080808061018b565b603190634e487b7160e01b5f525260245ffd5b601183634e487b7160e01b5f525260245ffd5b5061018b565b855162461bcd60e51b815260208184015260096024820152681b9bdd08189bdd5b9960ba1b6044820152606490fd5b505f8051602061113a8339815191525481163314610142565b90346100f95760203660031901126100f95761030e610e7d565b907ff0c57e16840df040f15088dc2f81fe391c3923bec73e23a9662efc9c229c6a0091825460ff81861c16159267ffffffffffffffff82168015908161041f575b6001149081610415575b15908161040c575b506103fe575067ffffffffffffffff19811660011784556103949190836103df575b5061038c611095565b6100f2611095565b61039c611095565b6103a257005b805468ff00000000000000001916905551600181527fc7f505b2f371ae2175ee4913f4499e1f2633a7b5936321eed1cdaeb6115181d290602090a1005b68ffffffffffffffffff19166801000000000000000117845585610383565b855163f92ee8a960e01b8152fd5b90501587610361565b303b159150610359565b85915061034f565b346100f9575f3660031901126100f9578051918183019083821067ffffffffffffffff8311176104b157508152600582526020640352e302e360dc1b60208401528151928391602083528151918260208501525f5b83811061049b5750505f83830185015250601f01601f19168101030190f35b818101830151878201870152869450820161047c565b604190634e487b7160e01b5f525260245ffd5b346100f957806003193601126100f9576020916104df610e67565b90355f525f83526001825f20019060018060a01b03165f52825260ff815f20541690519015158152f35b346100f9575f3660031901126100f9575f8051602061113a8339815191525490516001600160a01b039091168152602090f35b346100f95760203660031901126100f9576020906001600160a01b03610560610e7d565b165f5260018252805f20549051908152f35b90346100f9576020806003193601126100f957919061058f610e7d565b6002545f946001600160a01b039283169390929190865b8281106106a457506105cf6105ba88610fd4565b976105c78851998a610e93565b808952610fd4565b8785019590601f19013687375f935f5b8481106106285750505050505082519384938285019183865251809252840192915f5b82811061061157505050500390f35b835185528695509381019392810192600101610602565b610635819a98999a610f54565b9054600391821b1c5f525f885283838c5f2054161461065c575b50600101989796986105df565b610667829792610f54565b9054911b1c8851821015610691578161068a918960019460051b8c010152610fb2565b959061064f565b603285634e487b7160e01b5f525260245ffd5b6106b18198969798610f54565b90549060031b1c5f525f85528684895f205416146106d6575b600101969594966105a6565b946106e2600191610fb2565b9590506106ca565b346100f957602091826003193601126100f957355f525f8252805f2091600260018060a01b039361071f858254161515610ee5565b019082518082845491828152019081945f52835f20905f5b818110610784575050508161074d910382610e93565b8351938285019183865251809252840192915f5b82811061076e5785850386f35b8351871685529381019392810192600101610761565b8254891684529285019260019283019201610737565b346100f9575f3660031901126100f9576107b261105d565b5f8051602061113a83398151915280546001600160a01b031981169091555f906001600160a01b03167f8be0079c531659141344cd1fd0a4f28419497f9722a3daafe3b4186f6b6457e08280a3005b346100f9575f3660031901126100f9578051906020820133815242828401524460608401523060808401526080835260a083019083821067ffffffffffffffff83111761091d578183528351902092835f525f60205260018060a01b03835f2054166108ed575050815f525f602052805f20336bffffffffffffffffffffffff60a01b82541617905560025492600160401b8410156104b157506108ad83600160209501600255610f54565b81549060031b9084821b915f19901b1916179055519033817f881afe6c5cb98e40b8e430b60fdb8a14a1c14f3bc9c8ccafb146f47c1ab999af5f80a38152f35b62461bcd60e51b8252602060a4820152600a60c4820152696170702065786973747360b01b60e490910152606490fd5b604185634e487b7160e01b5f525260245ffd5b346100f9575f3660031901126100f9577f00000000000000000000000000000000000000000000000000000000000000006001600160a01b0316300361099957602090517f360894a13ba1a3210667c828492db98dca3e2076cc3735a920a3ca505d382bbc8152f35b5163703e46dd60e11b8152fd5b90816003193601126100f9576109ba610e7d565b602492833567ffffffffffffffff81116100f957366023820112156100f957808401356109e681610ec9565b936109f384519586610e93565b81855260209182860193368983830101116100f957815f928a8693018737870101526001600160a01b037f00000000000000000000000000000000000000000000000000000000000000008116308114908115610bcd575b50610bbd57610a5861105d565b81169484516352d1902d60e01b8152838189818a5afa5f9181610b8e575b50610a915750505050505191634c9c8ce360e01b8352820152fd5b9087878794938b7f360894a13ba1a3210667c828492db98dca3e2076cc3735a920a3ca505d382bbc91828103610b795750853b15610b65575080546001600160a01b031916821790558451907fbc7cd75a20ee27fd9adebab32041f755214dbc6bffa90cc0225b39da2e5c2d3b5f80a2825115610b4b5750505f6100f79581925190845af4913d15610b41573d610b33610b2a82610ec9565b92519283610e93565b81525f81943d92013e6110d6565b50606092506110d6565b9450945050505034610b5957005b63b398979f60e01b8152fd5b8651634c9c8ce360e01b8152808501849052fd5b8751632a87526960e21b815280860191909152fd5b9091508481813d8311610bb6575b610ba68183610e93565b810103126100f95751908a610a76565b503d610b9c565b845163703e46dd60e11b81528790fd5b9050817f360894a13ba1a3210667c828492db98dca3e2076cc3735a920a3ca505d382bbc5416141589610a4b565b346100f957806003193601126100f9576001600160a01b039082359082610c20610e67565b16938415610ca55750815f525f6020525f20838154610c5885821695610c47871515610ee5565b863314908115610c8b575b50610f1a565b6001600160a01b0319161790557fa5b32b2e99cb39d8330bd7b2ff8249930f12e2e3e3df00842cc176835b24fb6f5f80a4005b90505f8051602061113a8339815191525416331488610c52565b606491519062461bcd60e51b82526020818301526024820152637a65726f60e01b6044820152fd5b346100f95760203660031901126100f957602091355f525f825260018060a01b03815f2054169051908152f35b346100f957806003193601126100f957813590610d15610e67565b825f526020905f8252825f209460018060a01b0380875416610d38811515610ee5565b33148015610e4e575b610d4a90610f1a565b8216958615610e1f57865f5260018452845f2054868115918215610e15575b505015610de057600290875f52600181018552855f20600160ff1982541617905501805491600160401b8310156104b1575060019261023683610db393868a999896018155610f9d565b855f52525f20557fbf81ec538ed746a4f199df1e3dca0ef18e69cf933113ecb04fcae136f9e7d3c05f80a3005b845162461bcd60e51b8152808301859052600f60248201526e626f756e6420656c7365776865726560881b6044820152606490fd5b1490508689610d69565b845162461bcd60e51b8152808301859052600960248201526807a65726f20646170760bc1b6044820152606490fd5b505f8051602061113a8339815191525481163314610d41565b602435906001600160a01b03821682036100f957565b600435906001600160a01b03821682036100f957565b90601f8019910116810190811067ffffffffffffffff821117610eb557604052565b634e487b7160e01b5f52604160045260245ffd5b67ffffffffffffffff8111610eb557601f01601f191660200190565b15610eec57565b60405162461bcd60e51b815260206004820152600660248201526506e6f206170760d41b6044820152606490fd5b15610f2157565b60405162461bcd60e51b815260206004820152600b60248201526a1b9bdd08185b1b1bddd95960aa1b6044820152606490fd5b600254811015610f895760025f527f405787fa12a823e0f2b7631cc41b3ba8828b3321ca811111fa75cd3aa3bb5ace01905f90565b634e487b7160e01b5f52603260045260245ffd5b8054821015610f89575f5260205f2001905f90565b5f198114610fc05760010190565b634e487b7160e01b5f52601160045260245ffd5b67ffffffffffffffff8111610eb55760051b60200190565b6001600160a01b03908116908115611045575f8051602061113a83398151915280546001600160a01b031981168417909155167f8be0079c531659141344cd1fd0a4f28419497f9722a3daafe3b4186f6b6457e05f80a3565b604051631e4fbdf760e01b81525f6004820152602490fd5b5f8051602061113a833981519152546001600160a01b0316330361107d57565b60405163118cdaa760e01b8152336004820152602490fd5b60ff7ff0c57e16840df040f15088dc2f81fe391c3923bec73e23a9662efc9c229c6a005460401c16156110c457565b604051631afcd79f60e31b8152600490fd5b906110fd57508051156110eb57602081519101fd5b60405163d6bda27560e01b8152600490fd5b81511580611130575b61110e575090565b604051639996b31560e01b81526001600160a01b039091166004820152602490fd5b50803b1561110656fe9016d09d72d40fdae2fd8ceac6b6234c7706214fd39c1cd1e609a0528c199300a26469706673582212202e3dc02a0522bc0ba7a4989513ca34b14aef0ed09824d3457af64e1f3907630464736f6c63430008160033",
    "linkReferences": {}
  },
  "methodIdentifiers": {
    "UPGRADE_INTERFACE_VERSION()": "ad3cb1cc",
    "addAppContract(bytes32,address)": "0ca5d935",
    "appOwnerOf(bytes32)": "393fa094",
    "contractToAppId(address)": "85567a4d",
    "getAppsByOwner(address)": "849a7ebf",
    "getContracts(bytes32)": "81738c59",
    "initialize(address)": "c4d66de8",
    "isContractAllowed(bytes32,address)": "a8b9568c",
    "owner()": "8da5cb5b",
    "proxiableUUID()": "52d1902d",
    "registerApp()": "6d6c85c3",
    "removeAppContract(bytes32,address)": "e09c0082",
    "renounceOwnership()": "715018a6",
    "transferAppOwnership(bytes32,address)": "43bbc39b",
    "transferOwnership(address)": "f2fde38b",
    "upgradeToAndCall(address,bytes)": "4f1ef286"
  },
  "id": 29
}