{"abi":[{"type":"constructor","inputs":[],"stateMutability":"nonpayable"},{"type":"function","name":"AUTH_DEVICE","inputs":[],"outputs":[{"name":"","type":"bytes32","internalType":"bytes32"}],"stateMutability":"view"},{"type":"function","name":"AUTH_ORB","inputs":[],"outputs":[{"name":"","type":"bytes32","internalType":"bytes32"}],"stateMutability":"view"},{"type":"function","name":"UPGRADE_INTERFACE_VERSION","inputs":[],"outputs":[{"name":"","type":"string","internalType":"string"}],"stateMutability":"view"},{"type":"function","name":"accountState","inputs":[{"name":"","type":"address","internalType":"address"}],"outputs":[{"name":"nullifier_hash","type":"bytes32","internalType":"bytes32"},{"name":"level","type":"uint8","internalType":"uint8"}],"stateMutability":"view"},{"type":"function","name":"attest","inputs":[{"name":"sp","type":"tuple","internalType":"struct HumanPassVerifier.ServerPayload","components":[{"name":"account","type":"address","internalType":"address"},{"name":"app_id","type":"bytes32","internalType":"bytes32"},{"name":"nullifier_hash","type":"bytes32","internalType":"bytes32"},{"name":"merkle_root","type":"bytes32","internalType":"bytes32"},{"name":"proof_hash_keccak256","type":"bytes32","internalType":"bytes32"},{"name":"proof_hash_sha256","type":"bytes32","internalType":"bytes32"},{"name":"verification_level","type":"uint8","internalType":"uint8"},{"name":"action_hash","type":"bytes32","internalType":"bytes32"},{"name":"signal_hash","type":"bytes32","internalType":"bytes32"},{"name":"server_deadline","type":"uint256","internalType":"uint256"},{"name":"server_nonce","type":"uint256","internalType":"uint256"},{"name":"server_sig","type":"bytes","internalType":"bytes"}]},{"name":"ae","type":"tuple","internalType":"struct HumanPassVerifier.AccountEnvelope","components":[{"name":"account","type":"address","internalType":"address"},{"name":"app_id","type":"bytes32","internalType":"bytes32"},{"name":"server_sig","type":"bytes","internalType":"bytes"},{"name":"account_deadline","type":"uint256","internalType":"uint256"},{"name":"account_nonce","type":"uint256","internalType":"uint256"},{"name":"account_sig","type":"bytes","internalType":"bytes"}]}],"outputs":[],"stateMutability":"nonpayable"},{"type":"function","name":"eip712Domain","inputs":[],"outputs":[{"name":"fields","type":"bytes1","internalType":"bytes1"},{"name":"name","type":"string","internalType":"string"},{"name":"version","type":"string","internalType":"string"},{"name":"chainId","type":"uint256","internalType":"uint256"},{"name":"verifyingContract","type":"address","internalType":"address"},{"name":"salt","type":"bytes32","internalType":"bytes32"},{"name":"extensions","type":"uint256[]","internalType":"uint256[]"}],"stateMutability":"view"},{"type":"function","name":"initialize","inputs":[{"name":"initialOwner","type":"address","internalType":"address"},{"name":"_serverSigner","type":"address","internalType":"address"}],"outputs":[],"stateMutability":"nonpayable"},{"type":"function","name":"nonces","inputs":[{"name":"","type":"address","internalType":"address"}],"outputs":[{"name":"","type":"uint256","internalType":"uint256"}],"stateMutability":"view"},{"type":"function","name":"owner","inputs":[],"outputs":[{"name":"","type":"address","internalType":"address"}],"stateMutability":"view"},{"type":"function","name":"proxiableUUID","inputs":[],"outputs":[{"name":"","type":"bytes32","internalType":"bytes32"}],"stateMutability":"view"},{"type":"function","name":"renounceOwnership","inputs":[],"outputs":[],"stateMutability":"nonpayable"},{"type":"function","name":"requiredLevelOf","inputs":[{"name":"","type":"bytes32","internalType":"bytes32"}],"outputs":[{"name":"","type":"uint8","internalType":"uint8"}],"stateMutability":"view"},{"type":"function","name":"serverSigner","inputs":[],"outputs":[{"name":"","type":"address","internalType":"address"}],"stateMutability":"view"},{"type":"function","name":"setRequiredLevel","inputs":[{"name":"authType","type":"bytes32","internalType":"bytes32"},{"name":"level","type":"uint8","internalType":"uint8"}],"outputs":[],"stateMutability":"nonpayable"},{"type":"function","name":"setServerSigner","inputs":[{"name":"next","type":"address","internalType":"address"}],"outputs":[],"stateMutability":"nonpayable"},{"type":"function","name":"transferOwnership","inputs":[{"name":"newOwner","type":"address","internalType":"address"}],"outputs":[],"stateMutability":"nonpayable"},{"type":"function","name":"upgradeToAndCall","inputs":[{"name":"newImplementation","type":"address","internalType":"address"},{"name":"data","type":"bytes","internalType":"bytes"}],"outputs":[],"stateMutability":"payable"},{"type":"function","name":"usedServerNonce","inputs":[{"name":"","type":"uint256","internalType":"uint256"}],"outputs":[{"name":"","type":"bool","internalType":"bool"}],"stateMutability":"view"},{"type":"function","name":"verify","inputs":[{"name":"account","type":"address","internalType":"address"},{"name":"authType","type":"bytes32","internalType":"bytes32"}],"outputs":[{"name":"nullifierHashHex","type":"string","internalType":"string"}],"stateMutability":"view"},{"type":"function","name":"verifyBytes32","inputs":[{"name":"account","type":"address","internalType":"address"},{"name":"authType","type":"bytes32","internalType":"bytes32"}],"outputs":[{"name":"","type":"bytes32","internalType":"bytes32"}],"stateMutability":"view"},{"type":"event","name":"Attested","inputs":[{"name":"account","type":"address","indexed":true,"internalType":"address"},{"name":"nullifier_hash","type":"bytes32","indexed":false,"internalType":"bytes32"},{"name":"level","type":"uint8","indexed":false,"internalType":"uint8"}],"anonymous":false},{"type":"event","name":"EIP712DomainChanged","inputs":[],"anonymous":false},{"type":"event","name":"Initialized","inputs":[{"name":"version","type":"uint64","indexed":false,"internalType":"uint64"}],"anonymous":false},{"type":"event","name":"OwnershipTransferred","inputs":[{"name":"previousOwner","type":"address","indexed":true,"internalType":"address"},{"name":"newOwner","type":"address","indexed":true,"internalType":"address"}],"anonymous":false},{"type":"event","name":"ServerSignerUpdated","inputs":[{"name":"prev","type":"address","indexed":true,"internalType":"address"},{"name":"next","type":"address","indexed":true,"internalType":"address"}],"anonymous":false},{"type":"event","name":"Upgraded","inputs":[{"name":"implementation","type":"address","indexed":true,"internalType":"address"}],"anonymous":false},{"type":"error","name":"AddressEmptyCode","inputs":[{"name":"target","type":"address","internalType":"address"}]},{"type":"error","name":"ECDSAInvalidSignature","inputs":[]},{"type":"error","name":"ECDSAInvalidSignatureLength","inputs":[{"name":"length","type":"uint256","internalType":"uint256"}]},{"type":"error","name":"ECDSAInvalidSignatureS","inputs":[{"name":"s","type":"bytes32","internalType":"bytes32"}]},{"type":"error","name":"ERC1967InvalidImplementation","inputs":[{"name":"implementation","type":"address","internalType":"address"}]},{"type":"error","name":"ERC1967NonPayable","inputs":[]},{"type":"error","name":"FailedCall","inputs":[]},{"type":"error","name":"InvalidInitialization","inputs":[]},{"type":"error","name":"NotInitializing","inputs":[]},{"type":"error","name":"OwnableInvalidOwner","inputs":[{"name":"owner","type":"address","internalType":"address"}]},{"type":"error","name":"OwnableUnauthorizedAccount","inputs":[{"name":"account","type":"address","internalType":"address"}]},{"type":"error","name":"UUPSUnauthorizedCallContext","inputs":[]},{"type":"error","name":"UUPSUnsupportedProxiableUUID","inputs":[{"name":"slot","type":"bytes32","internalType":"bytes32"}]}],"bytecode":{"object":"0x60a080604052346100cc57306080527ff0c57e16840df040f15088dc2f81fe391c3923bec73e23a9662efc9c229c6a009081549060ff8260401c166100bd57506001600160401b036002600160401b031982821601610078575b60405161201390816100d18239608051818181610d0f0152610dc90152f35b6001600160401b031990911681179091556040519081527fc7f505b2f371ae2175ee4913f4499e1f2633a7b5936321eed1cdaeb6115181d290602090a15f8080610059565b63f92ee8a960e01b8152600490fd5b5f80fdfe6080806040526004361015610012575f80fd5b5f3560e01c9081630dd5ee1b14611619575080630ec4c601146115c257806313d232ce146115955780631b41ecc51461150757806331af1908146114e0578063485cc95514610fa45780634f1ef28614610d7957806352d1902d14610cfd578063715018a614610c9657806371a5426014610c095780637ecebe0014610bd157806384b0196e146109be5780638caef6d1146102de5780638da5cb5b146102aa57806398e8628114610213578063a3794698146101d9578063ad3cb1cc14610190578063c67e1a3214610156578063f2d8e5b9146101275763f2fde38b146100f8575f80fd5b34610123576020366003190112610123576101216101146117b6565b61011c611a5c565b6119c6565b005b5f80fd5b34610123576020366003190112610123576004355f526004602052602060ff60405f2054166040519015158152f35b34610123575f3660031901126101235760206040517f8e7eff7e4a57bd436b18f220111863326b17773a8b4460f9fabd87a3342330468152f35b34610123575f366003190112610123576101d56040516101af8161180a565b60058152640352e302e360dc1b60208201526040519182916020835260208301906117cc565b0390f35b34610123575f3660031901126101235760206040517f24724ee4262a299f5a9688e2fbc2a10ebcf5d2f3784ae745497cb764389a34a58152f35b346101235760203660031901126101235761022c6117b6565b610234611a5c565b6001600160a01b0390811690811561027f57815f549182167f8aca81b772b289537bcc2c109e400ab186c91216ba0e41570dd28dfff23dddad5f80a36001600160a01b031916175f55005b606460405162461bcd60e51b81526020600482015260046024820152637a65726f60e01b6044820152fd5b34610123575f366003190112610123575f80516020611f9e833981519152546040516001600160a01b039091168152602090f35b34610123576003196040368201126101235767ffffffffffffffff600435116101235761018081600435360301126101235767ffffffffffffffff602435116101235760c090602435360301126101235761033d600435600401611971565b6001600160a01b03610353600460243501611971565b166001600160a01b0390911603610986576101246004350135421161094d576064602435013542116109135761044c610443610426610396602435600401611971565b6103b46103ad604460243501602435600401611985565b3691611880565b602081519101206040519060208201927fb645e33dbb84a5678393748adc1f78df3cb9fc2b7f7715c8da0c3b33432ec974845260018060a01b0316604083015260608201526064602435013560808201526084602435013560a082015260a0815261041e81611826565b519020611bb4565b61043d6103ad60a460243501602435600401611985565b90611c75565b90929192611caf565b6001600160a01b031680156108dd57805f52600360205260405f205460846024350135036108a457602435608401356001810191908210610890575f52600360205260405f20556104ab6103ad61016460043501600435600401611985565b602081519101206104c96103ad604460243501602435600401611985565b6020815191012003610855576104e3600435600401611971565b60ff6104f360c4600435016119b8565b604080517f58352e7ca3275b008f7e50a763e874171dc04b5a353a4a9cf0dc184c003e63da60208201526001600160a01b03909416908401526004356044810135606085015260648101356080850152608481013560a085015260a481013560c0850152911660e083015260e4810135610100830152610104810135610120830152610124810135610140830152610144013561016080830191909152815261018081019067ffffffffffffffff821181831017610841576105c5610443916105dd9360405260208151910120611bb4565b61043d6103ad61016460043501600435600401611985565b5f546001600160a01b0390811691160361080c5761014460043501355f52600460205260ff60405f2054166107d35761014460043501355f52600460205260405f2060ff1990600182825416179055600160ff61063e60c4600435016119b8565b161480156107b9575b15610788576001600160a01b036106616004803501611971565b165f52600260205260405f2090815480155f146106f9575060446004350135825561069060c4600435016119b8565b9060ff600184019216908254161790555b7f430dddc259e95f54ee20a26722cb44012af5efe3765ddea2edb3675c0e23cd916106d0600435600401611971565b82546001909301546040805194855260ff90911660208501526001600160a01b039190911692a2005b604460043501350361074e5761071360c4600435016119b8565b600183019182549160ff808416911611610730575b5050506106a1565b60ff61074060c4600435016119b8565b169116179055818080610728565b60405162461bcd60e51b81526020600482015260126024820152710dcead8d8d2ccd2cae440dad2e6dac2e8c6d60731b6044820152606490fd5b60405162461bcd60e51b8152602060048201526009602482015268189859081b195d995b60ba1b6044820152606490fd5b50600260ff6107cc60c4600435016119b8565b1614610647565b60405162461bcd60e51b81526020600482015260116024820152701cd95c9d995c881b9bdb98d9481d5cd959607a1b6044820152606490fd5b60405162461bcd60e51b815260206004820152600d60248201526c6261642073657276657253696760981b6044820152606490fd5b634e487b7160e01b5f52604160045260245ffd5b60405162461bcd60e51b81526020600482015260136024820152720e6cae4eccae4bee6d2ce40dad2e6dac2e8c6d606b1b6044820152606490fd5b634e487b7160e01b5f52601160045260245ffd5b60405162461bcd60e51b8152602060048201526011602482015270626164206163636f756e74206e6f6e636560781b6044820152606490fd5b60405162461bcd60e51b815260206004820152600e60248201526d626164206163636f756e7453696760901b6044820152606490fd5b60405162461bcd60e51b81526020600482015260126024820152711858d8dbdd5b9d14da59c8195e1c1a5c995960721b6044820152606490fd5b60405162461bcd60e51b81526020600482015260116024820152701cd95c9d995c94da59c8195e1c1a5c9959607a1b6044820152606490fd5b60405162461bcd60e51b815260206004820152601060248201526f0c2c6c6deeadce840dad2e6dac2e8c6d60831b6044820152606490fd5b34610123575f366003190112610123577fa16a46d94261c7517cc8ff89f61c0ce93598e3c849801011dee649a6a557d100541580610ba8575b15610b6b57610a04611acc565b604051905f917fa16a46d94261c7517cc8ff89f61c0ce93598e3c849801011dee649a6a557d10380549382610a3886611a94565b91828252602093600197856001821691825f14610b4b575050600114610b02575b50610a6692500383611842565b604051908082019282841067ffffffffffffffff8511176108415790849281610abd8894876040525f8452610aaf60405197600f60f81b895260e0858a015260e08901906117cc565b9087820360408901526117cc565b914660608701523060808701525f60a087015285830360c087015251918281520194915f5b828110610aef5785870386f35b8351875295810195928101928401610ae2565b9150505f5282825f80516020611fbe833981519152875f915b858310610b32575050610a66935082010187610a59565b8091929450548385890101520191018390878693610b1b565b60ff191685820152610a6695151560051b8501019250899150610a599050565b60405162461bcd60e51b81526020600482015260156024820152741152540dcc4c8e88155b9a5b9a5d1a585b1a5e9959605a1b6044820152606490fd5b507fa16a46d94261c7517cc8ff89f61c0ce93598e3c849801011dee649a6a557d10154156109f7565b34610123576020366003190112610123576001600160a01b03610bf26117b6565b165f526003602052602060405f2054604051908152f35b34610123576040366003190112610123576001600160a01b03610c2a6117b6565b165f526002602052602060405f20610c8d60405191610c488361180a565b610c6660ff60018354938487520154169185850192835215156118b6565b6024355f526001845260ff8060405f20541691610c848315156118f1565b51161015611930565b51604051908152f35b34610123575f36600319011261012357610cae611a5c565b5f80516020611f9e83398151915280546001600160a01b031981169091555f906001600160a01b03167f8be0079c531659141344cd1fd0a4f28419497f9722a3daafe3b4186f6b6457e08280a3005b34610123575f366003190112610123577f00000000000000000000000000000000000000000000000000000000000000006001600160a01b03163003610d675760206040517f360894a13ba1a3210667c828492db98dca3e2076cc3735a920a3ca505d382bbc8152f35b60405163703e46dd60e11b8152600490fd5b604036600319011261012357610d8d6117b6565b60243567ffffffffffffffff8111610123573660238201121561012357610dbe903690602481600401359101611880565b906001600160a01b037f00000000000000000000000000000000000000000000000000000000000000008116308114908115610f76575b50610d6757610e02611a5c565b6040516352d1902d60e01b8152908216916020918281600481875afa5f9181610f47575b50610e4457604051634c9c8ce360e01b815260048101859052602490fd5b9284937f360894a13ba1a3210667c828492db98dca3e2076cc3735a920a3ca505d382bbc90818103610f2f5750823b15610f165780546001600160a01b03191682179055604051907fbc7cd75a20ee27fd9adebab32041f755214dbc6bffa90cc0225b39da2e5c2d3b5f80a2835115610efc57505f80848461012196519101845af4903d15610ef3573d610ed781611864565b90610ee56040519283611842565b81525f81943d92013e611dbf565b60609250611dbf565b9250505034610f0757005b63b398979f60e01b8152600490fd5b604051634c9c8ce360e01b815260048101839052602490fd5b60249060405190632a87526960e21b82526004820152fd5b9091508381813d8311610f6f575b610f5f8183611842565b8101031261012357519086610e26565b503d610f55565b9050817f360894a13ba1a3210667c828492db98dca3e2076cc3735a920a3ca505d382bbc5416141584610df5565b3461012357604036600319011261012357610fbd6117b6565b6024356001600160a01b0381169190829003610123577ff0c57e16840df040f15088dc2f81fe391c3923bec73e23a9662efc9c229c6a009182549060ff8260401c16159067ffffffffffffffff93848416938415806114d9575b600180961490816114cf575b1590816114c6575b506114b45767ffffffffffffffff1981168517875583611495575b5081156114585761106190611059611c34565b61011c611c34565b611069611c34565b6040516110758161180a565b6014815260209473243ab6b0b72830b9b9a0ba3a32b9ba30ba34b7b760611b86830152604051916110a58361180a565b858352603160f81b878401526110b9611c34565b6110c1611c34565b8051828111610841577fa16a46d94261c7517cc8ff89f61c0ce93598e3c849801011dee649a6a557d10290806110f78354611a94565b93601f948581116113ec575b508a9085831160011461136d575f92611362575b50505f19600383901b1c191690881b1790555b82519182116108415781907fa16a46d94261c7517cc8ff89f61c0ce93598e3c849801011dee649a6a557d103936111618554611a94565b828111611307575b508891831160011461129d575f92611292575b50505f19600383901b1c191690851b1790555b5f7fa16a46d94261c7517cc8ff89f61c0ce93598e3c849801011dee649a6a557d100555f7fa16a46d94261c7517cc8ff89f61c0ce93598e3c849801011dee649a6a557d101556bffffffffffffffffffffffff60a01b5f5416175f557f8e7eff7e4a57bd436b18f220111863326b17773a8b4460f9fabd87a3342330465f5281835260405f2060ff199083828254161790557f24724ee4262a299f5a9688e2fbc2a10ebcf5d2f3784ae745497cb764389a34a55f52600260405f209182541617905561125757005b7fc7f505b2f371ae2175ee4913f4499e1f2633a7b5936321eed1cdaeb6115181d29268ff0000000000000000198154169055604051908152a1005b01519050888061117c565b90879350601f19831691855f525f80516020611fbe833981519152925f5b8b8282106112f157505084116112d9575b505050811b01905561118f565b01515f1960f88460031b161c191690558880806112cc565b8385015186558b979095019493840193016112bb565b90919250845f525f80516020611fbe8339815191528380860160051c8201928b8710611359575b9186958b929594930160051c01915b82811061134b575050611169565b5f81558695508a910161133d565b9250819261132e565b015190508b80611117565b5f8581528b94507f42ad5d3e1f2e6e70edcf6d991b8a3023d3fca8047a131592f9edb9fd9b89d57d929190601f198516908e5b8282106113d557505084116113bd575b505050811b01905561112a565b01515f1960f88460031b161c191690558b80806113b0565b8385015186558e979095019493840193018e6113a0565b909150835f527f42ad5d3e1f2e6e70edcf6d991b8a3023d3fca8047a131592f9edb9fd9b89d57d8580850160051c8201928d861061144f575b918c91869594930160051c01915b828110611441575050611103565b5f81558594508c9101611433565b92508192611425565b60405162461bcd60e51b81526020600482015260156024820152741cd95c9d995c94da59db995c881c995c5d5a5c9959605a1b6044820152606490fd5b68ffffffffffffffffff19166801000000000000000117865586611046565b60405163f92ee8a960e01b8152600490fd5b9050158861102b565b303b159150611023565b5083611017565b34610123575f366003190112610123575f546040516001600160a01b039091168152602090f35b346101235760403660031901126101235760243560ff81168091036101235761152e611a5c565b60018114801561158b575b1561155a576004355f52600160205260405f209060ff198254161790555f80f35b60405162461bcd60e51b81526020600482015260096024820152683632bb32b61e98be1960b91b6044820152606490fd5b5060028114611539565b34610123576020366003190112610123576004355f526001602052602060ff60405f205416604051908152f35b34610123576020366003190112610123576001600160a01b036115e36117b6565b165f52600260205260405f2060ff6001825492015416906101d56040519283928390929160ff6020916040840195845216910152565b34610123576040366003190112610123576116326117b6565b6001600160a01b03165f9081526002602090815260409091206024926116578161180a565b611696825480835261167960ff600180960154169186850192835215156118b6565b85355f526001855260ff8060405f20541691610c848315156118f1565b51604051936060850185811067ffffffffffffffff8211176117a25760405260408552604036858701375f5b8481106116dc57604051858152806101d5818801896117cc565b82811a600f90818160041c16916010908184101561178f5784881b936f181899199a1a9b1b9c1cb0b131b232b360811b93906001600160ff1b038716870361177c5784901a61172b868d611a37565b53169081101561176957868301809311611756578693929161174f911a9189611a37565b53016116c2565b84634e487b7160e01b5f5260116004525ffd5b84634e487b7160e01b5f5260326004525ffd5b87634e487b7160e01b5f5260116004525ffd5b85634e487b7160e01b5f5260326004525ffd5b50634e487b7160e01b5f9081526041600452fd5b600435906001600160a01b038216820361012357565b91908251928382525f5b8481106117f6575050825f602080949584010152601f8019910116010190565b6020818301810151848301820152016117d6565b6040810190811067ffffffffffffffff82111761084157604052565b60c0810190811067ffffffffffffffff82111761084157604052565b90601f8019910116810190811067ffffffffffffffff82111761084157604052565b67ffffffffffffffff811161084157601f01601f191660200190565b92919261188c82611864565b9161189a6040519384611842565b829481845281830111610123578281602093845f960137010152565b156118bd57565b60405162461bcd60e51b815260206004820152600c60248201526b1b9bdd08185d1d195cdd195960a21b6044820152606490fd5b156118f857565b60405162461bcd60e51b815260206004820152601060248201526f756e6b6e6f776e20617574685479706560801b6044820152606490fd5b1561193757565b60405162461bcd60e51b81526020600482015260126024820152711a5b9cdd59999a58da595b9d081b195d995b60721b6044820152606490fd5b356001600160a01b03811681036101235790565b903590601e1981360301821215610123570180359067ffffffffffffffff82116101235760200191813603831361012357565b3560ff811681036101235790565b6001600160a01b03908116908115611a1f575f80516020611f9e83398151915280546001600160a01b031981168417909155167f8be0079c531659141344cd1fd0a4f28419497f9722a3daafe3b4186f6b6457e05f80a3565b604051631e4fbdf760e01b81525f6004820152602490fd5b908151811015611a48570160200190565b634e487b7160e01b5f52603260045260245ffd5b5f80516020611f9e833981519152546001600160a01b03163303611a7c57565b60405163118cdaa760e01b8152336004820152602490fd5b90600182811c92168015611ac2575b6020831014611aae57565b634e487b7160e01b5f52602260045260245ffd5b91607f1691611aa3565b604051905f827fa16a46d94261c7517cc8ff89f61c0ce93598e3c849801011dee649a6a557d10291825492611b0084611a94565b80845293602091600191828116908115611b8e5750600114611b2e575b505050611b2c92500383611842565b565b5f9081527f42ad5d3e1f2e6e70edcf6d991b8a3023d3fca8047a131592f9edb9fd9b89d57d9590935091905b828410611b765750611b2c9450505081016020015f8080611b1d565b85548885018301529485019487945092810192611b5a565b9250505060209250611b2c94915060ff191682840152151560051b8201015f8080611b1d565b604290611bbf611e22565b611bc7611e8c565b6040519060208201927f8b73c3c69bb8fe3d512ecc4cf759cc79239f7b179b0ffacaa9a75d522b39400f8452604083015260608201524660808201523060a082015260a08152611c1681611826565b519020906040519161190160f01b8352600283015260228201522090565b60ff7ff0c57e16840df040f15088dc2f81fe391c3923bec73e23a9662efc9c229c6a005460401c1615611c6357565b604051631afcd79f60e31b8152600490fd5b8151919060418303611ca557611c9e9250602082015190606060408401519301515f1a90611d32565b9192909190565b50505f9160029190565b6004811015611d1e5780611cc1575050565b60018103611cdb5760405163f645eedf60e01b8152600490fd5b60028103611cfc5760405163fce698f760e01b815260048101839052602490fd5b600314611d065750565b602490604051906335e2f38360e21b82526004820152fd5b634e487b7160e01b5f52602160045260245ffd5b91907f7fffffffffffffffffffffffffffffff5d576e7357a4501ddfe92f46681b20a08411611db4579160209360809260ff5f9560405194855216868401526040830152606082015282805260015afa15611da9575f516001600160a01b03811615611d9f57905f905f90565b505f906001905f90565b6040513d5f823e3d90fd5b5050505f9160039190565b90611de65750805115611dd457602081519101fd5b60405163d6bda27560e01b8152600490fd5b81511580611e19575b611df7575090565b604051639996b31560e01b81526001600160a01b039091166004820152602490fd5b50803b15611def565b611e2a611acc565b8051908115611e3a576020012090565b50507fa16a46d94261c7517cc8ff89f61c0ce93598e3c849801011dee649a6a557d100548015611e675790565b507fc5d2460186f7233c927e7db2dcc703c0e500b653ca82273b7bfad8045d85a47090565b6040515f907fa16a46d94261c7517cc8ff89f61c0ce93598e3c849801011dee649a6a557d1039181835491611ec083611a94565b9283835260209060208401966001916001811690815f14611f795750600114611f2c575b505050611ef392500382611842565b51908115611eff572090565b50507fa16a46d94261c7517cc8ff89f61c0ce93598e3c849801011dee649a6a557d101548015611e675790565b5f9081525f80516020611fbe8339815191529590935091905b828410611f615750611ef39450505081016020015f8080611ee4565b85548785018301529485019486945092810192611f45565b9250505060209250611ef394915060ff19168652151560051b8201015f8080611ee456fe9016d09d72d40fdae2fd8ceac6b6234c7706214fd39c1cd1e609a0528c1993005f9ce34815f8e11431c7bb75a8e6886a91478f7ffc1dbb0a98dc240fddd76b75a26469706673582212203b13561175dc57fda236656c06921d24042861f8e0e34893bb4e99f5f8b97ad364736f6c63430008160033","linkReferences":{}},"methodIdentifiers":{"AUTH_DEVICE()":"c67e1a32","AUTH_ORB()":"a3794698","UPGRADE_INTERFACE_VERSION()":"ad3cb1cc","accountState(address)":"0ec4c601","attest((address,bytes32,bytes32,bytes32,bytes32,bytes32,uint8,bytes32,bytes32,uint256,uint256,bytes),(address,bytes32,bytes,uint256,uint256,bytes))":"8caef6d1","eip712Domain()":"84b0196e","initialize(address,address)":"485cc955","nonces(address)":"7ecebe00","owner()":"8da5cb5b","proxiableUUID()":"52d1902d","renounceOwnership()":"715018a6","requiredLevelOf(bytes32)":"13d232ce","serverSigner()":"31af1908","setRequiredLevel(bytes32,uint8)":"1b41ecc5","setServerSigner(address)":"98e86281","transferOwnership(address)":"f2fde38b","upgradeToAndCall(address,bytes)":"4f1ef286","usedServerNonce(uint256)":"f2d8e5b9","verify(address,bytes32)":"0dd5ee1b","verifyBytes32(address,bytes32)":"71a54260"},"id":39}